:10000000001400205909000000000000000000005A
:1000100000000000000000000000000000000000E0
:1000200000000000000000000000000000000000D0
:100030000000000000000000000000008905000032
:100040008D05000000000000B505000091060000CD
:1000500000000000000000000000000000000000A0
:100060000000000000000000002934D0012300221D
:1000700010B488422CD301242407A14204D2814227
:1000800002D209011B01F8E7E400A14204D2814237
:1000900002D249005B00F8E7884201D3401A1A43B4
:1000A0004C08A04202D3001B5C0822438C08A042EB
:1000B00002D3001B9C082243CC08A04202D3001BA1
:1000C000DC082243002803D01B0901D00909E3E71B
:1000D000101C10BC7047002801D00020C04307B49A
:1000E000024802A14018029003BDC046D90000009A
:1000F0000029F0D003B5FFF7B9FF0EBC4243891ABF
:100100001847C046002941D010B4041C4C40A446F6
:1001100001230022002900D54942002800D5404291
:1001200088422CD301242407A14204D2814202D266
:1001300009011B01F8E7E400A14204D2814202D286
:1001400049005B00F8E7884201D3401A1A434C0883
:10015000A04202D3001B5C0822438C08A04202D3B9
:10016000001B9C082243CC08A04202D3001BDC08E1
:100170002243002803D01B0901D00909E3E7101C22
:100180006446002C00D5404210BC7047002806D0C1
:1001900003DB0020C043400801E08020000607B4D4
:1001A000024802A14018029003BDC0461900000099
:1001B0000029EBD003B5FFF7A7FF0EBC4243891A15
:1001C0001847C0467047C0468446101C62468C469D
:1001D000191C634600E0C0461FB500F0FBF800287C
:1001E00001D40021C8421FBD10B500F02BF84042D9
:1001F000013010BD10B500F0EDF8002801DB002043
:1002000010BD012010BDC04610B500F0E3F8002875
:1002100001DD002010BD012010BDC04610B500F06A
:100220005BF8002801DC002010BD012010BDC04695
:1002300010B500F051F8002801DA002010BD0120AF
:1002400010BDC046F0B55F4656464D464446F0B434
:100250000D1C041C8046E80F814618030F03000B99
:100260003F0B83B084461B48009749005E00DF0FB8
:10027000490D9246760DBB4681420CD01548864208
:1002800010D00120B14215D003B03CBC9046994635
:10029000A246AB46F0BD009F01202743F4D10D4894
:1002A0008642EED1604602430120002AECD10120B3
:1002B000B142E9D1009B6345E6D1D045E4D1D945AF
:1002C00006D00029E0D11C43201C441EA041DBE7DE
:1002D0000020D9E7FF070000F0B55F4656464D46BF
:1002E0004446F0B4CD0FDE0FAC461D032D0BB146D6
:1002F000374E0F034C00AB465D0080463F0B640D4C
:1003000092466D0DB44232D0314EB54235D0002CFC
:100310000ED1384341424141081C002D0BD0002929
:1003200019D1CC452DD0654668420123184318E009
:10033000002DF6D1281C59460A4353425341002848
:1003400006D1002BEDD0634658420123184308E044
:100350000020002B05D14A46504250414042012323
:1003600018433CBC90469946A246AB46F0BD3E1CA5
:100370000643C9D002204042F3E75E461643C6D08A
:10038000F8E7AC4207DC0BDA61464842484140429C
:1003900001231843E5E76646704201231843E0E76E
:1003A0005F450AD80ED000205F45DAD26546684224
:1003B0006841404201231843D3E76246504201237B
:1003C0001843CEE7D045F8D80020D045EED3C8E793
:1003D000FF070000F0B556464D4644465F46F0B470
:1003E0000D1C83B0041C0190E80F814618030F0315
:1003F000000B3F0B84463548009749005E00DF0F35
:10040000490D9246760DB846814234D02F48864237
:1004100036D0002918D0002E1FD1341C67463A432D
:1004200053425341002C1FD00020002B05D14246DF
:100430005042504140420123184303B03CBC904617
:100440009946A246AB46F0BD009804436042604125
:10045000041C002EE2D00028E9D1C14515D04F463A
:10046000784201231843E8E7002BF6D04B46584268
:1004700001231843E1E7009F02202743DDD1C5E7B0
:10048000674602201743D8D1C3E7B14204DD4A468C
:10049000504201231843D0E7B14207DB0098604582
:1004A000E4D80AD0009F00206745C6D24F46784264
:1004B0007841404201231843BFE7019A5245D5D8FD
:1004C000019A00205245F1D3B7E7C046FF0700006C
:1004D000F8B5041E31D0C70F00D04442201C00F0F4
:1004E00035F8184D2D1A0A2819DD0B3884402403DD
:1004F0006D05240B6D0D3A1C0026002000210B0D0C
:100500002403240B1B0523430F4C2D051C402C43B7
:1005100064006408D307211C301C1943F8BD061C75
:100520001536231CB3401E1C0B23181AC440240389
:100530006D05240B6D0D3A1CDFE700220025002419
:100540000026DAE71E040000FFFF0F801C210123B4
:100550001B04984201D3000C10391B0A984201D3A6
:10056000000A08391B09984201D30009043902A284
:10057000105C40187047C0460403020201010101EB
:100580000000000000000000FEE70000064B012212
:100590001A708023DB05D96B044A0A40DA63D96BF1
:1005A000034A0A40DA637047CC090020FFFFFFFED0
:1005B000FFFFFFEF38B5A025ED052B691B011B0FD1
:1005C000082B0DD1314900230B60AA8A52BA4A6028
:1005D000081C8B604A680C30103105F025FE47E09E
:1005E000022B0DD1294BD968002941D09A6818698E
:1005F00082423DDA9A68501C98602B7D8B5437E01C
:10060000042B30D1214CE368002B2AD022682169C9
:100610008A420BDA22689B5CAB6163682068C01871
:1006200080B205F03FFE2368013318E0626823685A
:10063000201C211CD2180C30103105F0F5FDE368A8
:10064000002B0ED062682268616822688A18626096
:100650001B78AB61606880B205F024FE0123236043
:1006600006E0AB6104E0012B02D1084B00229A6046
:10067000C046A023DB05DA6801210A43DA60C046E0
:100680008022D96852000A43DA6038BDEC020020AB
:10069000F7B503F059FB041C03F046FB0022A256F9
:1006A000231CFC33002A00D018E1D96C002977D133
:1006B0009A6C002A01D0013A9A642822013A0CD39C
:1006C0009E4D9E6C511989000D682821714389182F
:1006D000A431490061188D80F0E78023DB051A689A
:1006E00010218A4396491A600A1C45321278012566
:1006F0009540EAB2C37A2E1C0F2A00D90F260F2785
:10070000321C3A4000920A1C47321278012595406B
:100710002A1CEDB2BD4200D93A1C1740002B1DD057
:10072000013BC2183432127855004D5D222A09D19E
:10073000844E2D01AD196A680F26B243009E3243E4
:100740006A60EBE7232AE9D12A017E4D52195668E7
:100750000F25AE43351C3D435560DFE77A4AA0893B
:1007600011680005090B000D090301431160A27A0D
:10077000E17A8023DB05891A0F200140734A186B48
:10078000490102400A431A631A6810218A431A6019
:1007900001225A701968FC3411431960E264CCE0FC
:1007A000C27A013A0FD3811834310978684E8D002E
:1007B0009F6CAD1928267E437118A4312D6849001D
:1007C00061188D80EDE78023DB051A6810218A43CC
:1007D0001A605B4BC27A191C4B310E7801210D1C3B
:1007E000B5402E1C1D1C43352D780F1CAF401D1C21
:1007F0004F352D783E43A9400D1C311C29430E1C5A
:10080000C9B20F2900D90F26311C0F27394000919A
:10081000191C493109788C4601210D1C6646B540EA
:1008200001954125EE5C019DB1400D43291CEDB2BF
:10083000BD4200D9391C0F40002A1ED0013A811850
:10084000343109784D005D5D23290AD13D492D01E0
:100850006D186E680F218E43311C009E3143696014
:10086000EAE72229E8D12901364D49194E680F25BA
:10087000AE43351C3D434D60DEE73349A58808682B
:100880002D05000B2D0D000328430860A178E078AA
:100890008023DB05401A0F2528402C491D6B4001A1
:1008A000294001431963FC34A66C002E08D01A6855
:1008B00010218A431A6001225A7019680A4309E01C
:1008C00024480121C17018681025A84318605A7087
:1008D0001A688A431A600023E3642EE09A6C002AA7
:1008E00001D0013A9A642822013A0CD3134F9D6C2F
:1008F000D11989000868282169438918A431490061
:1009000061188880F0E7996C8023DB05002908D006
:100910001A6810218A431A6001225A7019680A4322
:100920000AE00C480122C27018681024A043186025
:100930005970196891430A1C1A60F7BD00600010D5
:10094000BC9C000000400040D40000401FFEFFFFA0
:1009500000800140CC09002070B58022D2051379B7
:10096000DBB2C82B05D0C72B01D80133DBB2137122
:10097000F7E700233A4A3B499A188A4204D23A4997
:10098000C95804331160F5E7384B394A191D043B47
:10099000934203D200221A600B1CF6E7EFF30882A1
:1009A000344B191D043B9A4203D9334818600B1C81
:1009B000F7E703F0C5FA31493148053989B280B209
:1009C00003F054FA2F4B304C012252421A715A71E3
:1009D0009A71DA71221C3C321178221C3D32127855
:1009E0001D1C12020A43904234D105F077FC2749BE
:1009F000274B0888274A98420BD0667D0888217DBE
:100A000036023143884204D1118889B22971090A1A
:100A10006971118899421BD0E07DA17D1388000285
:100A200001438B4214D100210423013BDBB2FF2B95
:100A300007D01948E618C05C36798642F5D1012105
:100A4000F3E7002904D013889BB2AB711B0AEB714A
:100A500001F08CFD114B04221A6062B6FEE7C0461D
:100A600000000020EC02002078A10000F00200202D
:100A7000C5090020D00B0020CDCDCDCD80BF00001A
:100A800000000000D609002040BF0000FEAB0000BF
:100A9000FFFF00003EBF000000AC000000E100E0EE
:100AA000014B18607047C046E0090020014B1868F0
:100AB0007047C046E0090020014B18607047C046EF
:100AC000E4090020014B18687047C0460000002070
:100AD000014B58687047C0460000002038B5114CE3
:100AE000256803F087FE98352860256803F086FEA8
:100AF0009C352860256803F089FEA03528602568AC
:100B000003F092FEA4352860074B08481B68006874
:100B1000197C007822684143D1651B7FA83213708D
:100B200038BDC04600000020E0090020E409002094
:100B300007B505F033FF03F0B7FE021E07D1694683
:100B4000A923888000900B7105F026FBFEE705F0D5
:100B500055FFFFF7C3FF07BDF0B585B00E1C071C9E
:100B600005F016FC1F4C029023680021DA68381C3F
:100B7000920008F0E3FF2368301C1A6900219200FC
:100B800008F0DCFF029B5C78174D002C0ED0002093
:100B900004F0D4F82B68381C1A1C9C32A03312685D
:100BA0001B68311C05F066FC013CEDE72B689C33AB
:100BB0001B68019303F030FD039003F03DFD0399A2
:100BC000021C019805F0F6FB029B381C5A78311C78
:100BD00005F072FC201C2D6804F0B6F8B0352860D2
:100BE00005B0F0BDD802002000000020F0B5404C58
:100BF00089B023681A1C94321278002A75D199683A
:100C0000002908DD1869C14205D55969F420CD0FC6
:100C1000FF3088426A4165331A7005F0B9FB2268DB
:100C20000024111C936865310D78A34206D11C2461
:100C3000005F16690124864200DB1C1C2C430C70EB
:100C4000002B52DB12692B498A4202DB2A498B4274
:100C50004BDD07937C2368465B4200240225C3706A
:100C600001212423848001704570857003710692F0
:100C7000201C694606AA05F08FFA204F02A93B689E
:100C80001F4E1A681B798C804B708B7080235B42DF
:100C90002B43CB7045230B7133680A701A68201CF4
:100CA00005F07AFA04A901230B703B688C801B7C49
:100CB00080204B708B706A230B71336840425A68F6
:100CC0000543201CCD7005F067FA094B01211B6814
:100CD0001A1C6532117057321278A24203D0094AA9
:100CE0001C69944201DA15229A6609B0F0BDC0462B
:100CF000000000200CFEFFFFDF930400D80200205C
:100D00000400002018FCFFFFF0B5A1B0051C05F0A1
:100D10003FFB071C05F060FE061C05F057FE039024
:100D200005F088F9012800D11FE1924B924C1B88F5
:100D30000193132B57D92368002B01D0013B53E0BB
:100D40000A232360331CBC33187800284DD18B4B09
:100D50008B4A1B6859690291914246DC9622E96CE4
:100D600052009446914240DD2A6D62453DDD1C6B88
:100D7000029F0E940F979C6A10949F68341C1197E1
:100D8000B8342468C03612943668AC3313961B68A6
:100D9000AC691493019B6E4615937A4B1B8816938E
:100DA000794B1B881793794B1B881893784B1B88BA
:100DB0001993784B1B881A932B781B9312231C943E
:100DC0007374B3747C23ED695B421E911F920124FE
:100DD000F37404A94D230EAAB0821D9534743375A3
:100DE00005F0DAF9C2E00A2323606B4B1B88012B64
:100DF00007D96368002B01D0013B03E00A2363603D
:100E000082E00A235D4D63602B681A1C94321278CD
:100E1000002A00D091E05A6979898A4210DDBC210C
:100E2000FF318A420CDC5D49039F09684868B98F2D
:100E30000027C65F8E4203DA0226805F884207DB06
:100E4000F421FF318A4224DD1B6B52109A4220DAD2
:100E50007C2306A95B42221C01260020CB700832AD
:100E6000C02388800E700B714E708E7005F094F95F
:100E7000A268531EA360002A0DD108A9BE23101C2E
:100E80008A8008920B7105F087F95023A360341C07
:100E90006CE05023A360E2680EAB002A08D1BD21AC
:100EA0009A80101C1971191C0E9205F075F92BE02F
:100EB0002A68111C65310C78002C27D0976E00240D
:100EC0000E971169201C596092680AA99A60012244
:100ED0000A7003224A708A707C225242CA70102221
:100EE0008C800A711A1C05F057F92B68191CBC314B
:100EF00008789A6E0221A04200D014218A4202DCB6
:100F000001329A6631E09C6601242FE016690CA933
:100F10000E96926809205A6001220A7002224A70D5
:100F20008A707C225242CA7020228C800A711A1C5C
:100F300005F032F92B689C6618E09968002903DBFC
:100F4000174A1E69964206DB5B697A8993420ADD7D
:100F5000144A934207DC2369002B01D0013B03E0D4
:100F600005232361D0E7052323610024201C21B041
:100F7000F0BDC04676080020D00000200000002010
:100F8000CF070000780800207A0800207C080020A5
:100F90007E08002080080020740800200400002043
:100FA00030F8FFFF99020000F0B55D4D1C1C2B6866
:100FB00091B0049002920391191C9C331A68083175
:100FC000049B029805F0C2FA2B68061C191CA0337A
:100FD0001A680831039B201C05F0FAFB514F06A943
:100FE0003B6800228A801A681B790A704B708B70EC
:100FF000802302225B4213430643CB70F6B24523A3
:101000000120029A0B71059605F0C6F83A6808A906
:1010100000238B80137C02224B708B7080235B42F9
:1010200001261343CB70301C6A23221C0E700B71F7
:1010300005F0B2F83B680AA91A68301C0A701A79E0
:101040004A708A701A7ECA701A69DB69D3189B19B4
:101050000B714B797F229343022213438022524229
:1010600013434B71029B00220093131C05F060F8A0
:101070002D4B0021625E2D4E9A4203DB0221625EFF
:101080009A420DDA336801333360092B0ADD2B688D
:1010900003981A6E211C05F03BFC0023336001E02D
:1010A00000223260059B002B2ED12B6802991A1C5E
:1010B00008321B6E049805F0E3FB2B68211C1A6EA6
:1010C000039805F007FC174F0CA93B6804251A6824
:1010D0001B790A704B708B700E264423281C049ACF
:1010E0000B71CD704E7105F057F80EA901230B70EE
:1010F0003B68281C1B7C039A4B708B706923CD7056
:101100000B714E7105F048F8201C05F025FD044BCD
:101110001868503005F026FF002011B0F0BDC04621
:1011200000000020D80200200CFEFFFF2C0300204E
:10113000F0B5474E1C1C336889B01C60051C049137
:10114000059205F003FD00211022424808F0F6FC4C
:1011500000212422404808F0F1FC002124223F48CD
:1011600008F0ECFC002110223D4808F0E7FC3D4F60
:101170000021381C242208F0E1FC002124223A48F6
:1011800008F0DCFC334B0422009201933A1C3249F4
:10119000354B092006F060FD344B06A91B68002280
:1011A0008A801A681B790A704B708B707E235B42B1
:1011B000CB70221C6E2305200B7104F0EDFF2C4C2C
:1011C00000216C22201C08F0B9FC274B042200935C
:1011D000204B0921019202931F4A3B1C201C07F05F
:1011E000CFF92070FFF702FD201CFFF78DFD071ED1
:1011F00016D105F0F1FB201C291C049A059B05F073
:1012000025FD281C0499059A05F02EFE04F0F4FE35
:10121000012806D03368D868196901F0A9FC00E0FC
:10122000022705F0C1F8041C05F0D6FB2378002B3B
:101230000AD07C300378002B06D104F0DDFE0128B3
:1012400002D0012002F0D5FF381C09B0F0BDC04625
:1012500004000020640A0020740A0020300B0020E3
:10126000E80900200C0B0020980A0020D80200207A
:10127000F809002008B508F073FB02F05BFD08BD1B
:1012800008B508F0F5FB08F06FFB02F053FD0020F5
:1012900003F0DAF902F09FFFFFF720FC08BD10B55C
:1012A0008AB024220021041C01A808F047FC05F0A4
:1012B00039FE01A805F0C4FF01A8211C05F010FEAD
:1012C00005F030FE0AB010BD30B585B005F084FBE6
:1012D0002B4D011C2B687C311A1C0978593212786D
:1012E000002906D1C4300178002902D151B2481C2E
:1012F00004D100245C60A2421FD12BE05868DA6D53
:10130000904202DA586801305860012922D05B68A7
:1013100093421FDB1B4B01241B685B7C002B0CD012
:10132000201C04F071FE00226946A223101C8A8052
:1013300000920B7104F030FF1FE00022231C02A971
:101340000E33101C8A8002920B7104F025FF2B686B
:1013500059331C702B681A1C59321278002A03D199
:10136000094A1268127804E0012A03D1064A126879
:1013700052781A66186E02F047FF05B030BDC046BD
:1013800000000020E0090020E4090020F0B595B03D
:1013900000AF02F0C9FC954D807A2C687863E26852
:1013A000684653000833DB08DB00C01A236992004B
:1013B00059000831C9080A32C900D2088546D2004E
:1013C000401A6E46F8628546801A85463E639B0049
:1013D0006E463E620A33E669DB08B200DB00C01AE3
:1013E000131C0A33DB08DB008546F861C01A85460A
:1013F0006B467600BB62331C0833DB08DB00C01A87
:10140000854678620021B86A08F098FB0021321CFA
:10141000786A08F093FBE36800215A00386B08F003
:101420008DFB226900215200F86A08F087FB00203A
:1014300003F084FC2B686E49DB6808689A00043A64
:10144000013B06D3041C9C3424683D6AA458AC506C
:10145000F5E77B6B09685A1E9200013B07D3081C15
:10146000A0300068FE698058B050043AF5E70120CA
:1014700003F064FC5D4B5E4A1B681168DB699A00EF
:10148000043A013B7DD3081CA4300068BC6A805834
:10149000A050F5E764469C3424683D6AA458AD58D2
:1014A0002C1B00254E5FA64200DA0C80043A02395C
:1014B000013BEFD203694E4A591EFE6A14688A0046
:1014C00049007118013B6FD2012003F037FC474BF4
:1014D000474A18681168C3698C467C6A591E8A009D
:1014E00049006118013B6ED20379016839223A2420
:1014F000D355E35538268023F1555B42022633430A
:101500003B200025C3553C214523BD87CB55391CC5
:10151000012038313A6B04F03FFE344E012430682C
:1015200040234422DC55037CD55341214222CB5534
:10153000D355802302205B4203434321CB554422F1
:101540006A23391CD355201C4031FA6A04F024FE6A
:101550004C23DD5333684A201B7F4926C355F3557E
:10156000802302215B420B4348254B22391CEC555A
:10157000D3554C25B923201C48317A6AEB5504F029
:101580000BFE04F023FD0C282CD1002003F0D6FB29
:10159000164B174A18681568C3683E6B591E8A00B7
:1015A0004900AC46711883E7201CA0300068FD6933
:1015B0008058AD58281A00268D5F854200DA0880D1
:1015C000043A02397EE76446A4342468BD6AA4580C
:1015D000AD582C1B00254E5FA64200DA0C80043A61
:1015E00002397FE7BD4615B0F0BDC046D8020020E5
:1015F00000000020F0B591B000AF02F095FB02F0C2
:10160000A3FB724B68461C680021656826686E4320
:1016100073199B000A33DB08DB00C01A8546E368B8
:101620006A463A629A0008F089FAB600396A226975
:10163000B0089200F8618819002108F07FFA644B25
:10164000644A1B68AD009A614832DA6108223D6144
:101650007A63786B5D4D5E4C0138786300D296E01A
:1016600023680021986A04F0C5FA2E68246833685C
:10167000386A0021BB617C617862B962F962F86AFC
:10168000B96988420ADB524BFA691B6836697B628A
:101690003B6A9400FE621C19002574E0F96A4D4B08
:1016A0007068CA00D3187C6A3863FB6000253A6B07
:1016B00095422CDABA6A7869AB1803225343806AE0
:1016C000C3181A785978D009490001439878012342
:1016D00003405B020B430A214B43206852061B1850
:1016E0002360520E03D04A43D2119B182360796BBA
:1016F000002909D122687220D30858436421FEF7DB
:10170000B3FCF9686B00C85201350434CFE7D3430A
:10171000B86ADB171340C018F96A7A6A3B6901316D
:10172000D218B862F9627A62A9E7BA6A786AAB1825
:1017300003225343806AC3181A785978D0094900A4
:1017400001439878012303405B020B430A214B437A
:10175000206852061B182360520E03D04A43D21150
:101760009B182360796B00290BD11A4B22686E00FD
:10177000F6187220D30858436421FEF775FC4836EA
:10178000308001350434FB6A9D42CEDB61E72B6873
:1017900038211A683920CA551A793A21C255CA55D2
:1017A0001A7E3B201B69C2553C21381CCB553D227B
:1017B000022338300749D35504F05EFC2368002229
:1017C000BD469A61DA6111B0F0BDC046D802002072
:1017D00004000020BC0A0020F0B5564D8FB02B68E5
:1017E00000AF59681A68F9624A4353185B0008331E
:1017F000DB08DB006946C91A4F4B8D46B962F96AAE
:101800001B684C005200694699615108396169466C
:101810008A18DA61002003F091FA2E68474B32688B
:101820001B68F96AFB60131C013B640859436400A0
:10183000FA6162425C43BB6A3962F9691C19BA6099
:101840007C6079620022796A7A61013979622ED3EB
:101850003B4974683A6A63189B189B00BB617968BE
:101860007B695B183B60013C19D3FB68BA699C3308
:101870001B6823209D5864216D096843FEF742FCD4
:10188000854200DD2D1A722068436421FEF73AFC80
:10189000BA6939686500043A4853BA61E3E73B6ABC
:1018A000F96A7A695B1A3B62BB68D218CBE7234BB3
:1018B00032691B683969FA62BA6A7B624B00D318D5
:1018C000FC6A3B62013C16D37B6AA200A0331B6812
:1018D0002320D55864216D096843FEF713FC854227
:1018E00000DD2D1A722068436421FEF70BFC3B6A71
:1018F00065005853E6E7FA6933793021CA5531213A
:101900003222CB55D355337E3321CB55FB6A34225B
:10191000D3557E235B423521381CCB553030B96A14
:1019200004F0AAFB044B00221B68BD469A61DA61F1
:101930000FB0F0BDD80200200400002000000020FD
:10194000FFFFFF3FF0B5604D8FB02C6800AF6668B9
:101950002168FE6271438B19DA1D5B00D2080833DF
:10196000D2006E46DB08B61ADB003962F11AB546C2
:10197000564B8D46BE626E461B683A6AFE61BE6A71
:101980001E62311CB6185E62E268081C002108F075
:10199000D5F82269301C002108F0D0F84C4BFC6AC5
:1019A0001B68620064331B783E6A52087A617B626E
:1019B0007200A30052085B423A61FB607C6A002C13
:1019C00060D0002003F0BAF93F4B414A1868126812
:1019D0004368BA61013B2BD30268FD6A541E6C4315
:1019E0001C19A400013AF5D3B969FE699C31096854
:1019F0000959396079693D68514359184900895F2F
:101A0000491BFF2900DDFF21BE6ACD43F6187E6029
:101A1000FE6AED1756430D4079688D557969FD6969
:101A200051433E68591849004E53FD686419D9E77F
:101A30000369274A3C691268E018FD695E004000AE
:101A4000BA61B44628180022023A013B16D3BC6999
:101A50006646A034B118246849000C59815E091B00
:101A6000FF2900DDFF213D6ABE6A84527619BE60FF
:101A7000CE43F617BD683140E954E5E77E6A013E82
:101A80007E629BE7104D30262B68312419681A7945
:101A90003225F155E255EA551A7E1B693421CB55A2
:101AA0003326381C7F23F2555B4235223030B96A29
:101AB000D35504F0E1FA054B7C6A1B68BD461C62F5
:101AC0005C620FB0F0BDC046D802002004000020C8
:101AD00000000020F0B58DB000AF02F041F9524B8C
:101AE00069461B685D683B617D621D687B6AFD61BC
:101AF0006B439A000A32D208D200891A8D466D468D
:101B0000BD607D6A5B006D0008337D61DB087D6A26
:101B1000DB006A46C91AAD008D467960FD60111C74
:101B20000022FD69AA4204DBB8610020BD6838626A
:101B300019E03E4BD400E41800237D6AAB4205DA7D
:101B40005E00A65B9D004E510133F6E7FD68013251
:101B50004919E6E7386ABA697B69F9680130D21831
:101B600038626D18BA61386AF969884204DB7D68A9
:101B700000263D62BD6835E000247B6A9C42E9DABC
:101B8000A600A959BA69FA20630080004843D15AD7
:101B9000FEF7B8FA0134A851EFE7A300EA1851683C
:101BA000EB58CA1ACB18D017D90F1218C9184240CF
:101BB0004910581C00DA4942FA2080006300504363
:101BC000BB61FEF79FFA396ABA69013488527B6AB1
:101BD000013B9C42E1DB3B6A7869F9681B180136DE
:101BE0003B626D18FA69964201DA0024EFE7FD695D
:101BF0002823DD557D6A2920EBB25A1E3D692A2132
:101C0000C255CB552B7E2B20C3552C210023CB5501
:101C1000381C7E235B422D2228307968D35504F08E
:101C20002BFABD460DB0F0BDD8020020BC0A002042
:101C3000F0B58DB000AF02F093F8564B69461B68C3
:101C40005D687B617D621D687B6A3D626B439A00C3
:101C50000A32D208D200891A8D466D46BD617D6A6E
:101C60006A466D00BD607D6A5B195B0008337D6A62
:101C7000DB08DB00C91AAB009B089D008D4679602C
:101C80003B61111C3D6000223D6AAA4204DBF86002
:101C90000020BD69F86119E03F4BD400E41800232F
:101CA0007D6AAB4205DA5E00A65B9D004E510133B2
:101CB000F6E73D6801324919E6E7F869FA68BB685A
:101CC00039680130D218F8616D18FA60F869396A1C
:101CD000884204DBBD6800246D08FD6138E0002403
:101CE0007B6A9C42E9DAA600A959FA68FA206300E7
:101CF00080004843D15AFEF705FA0134A851EFE7B6
:101D00003B696E1C7343B869E3189B0019583B6923
:101D10006B43E3189B001B58CA1ACB18D017D90F76
:101D20001218C91842404910581C00DA4942FA20DA
:101D3000FB69800050435D43FEF7E4F9651979685B
:101D40006D006852351C3B6A013B9D42D8DB013473
:101D50007D6AAC4201DA0025F5E73B6A7D6A013B0A
:101D60002820C3552A21EBB229207D69C355CB55C4
:101D70002B7E2B20C3552C210023CB55381C7E23D2
:101D80005B422D2228307968D35504F075F9BD46A1
:101D90000DB0F0BDD8020020BC0A0020F0B5BBB0E9
:101DA000029007F065FE051C04F016FE019004F099
:101DB00041F99A4C26AA131C211CC1C9C1C341C9AF
:101DC00041C32BAF381CBC46C8C9C8C048C948C0AD
:101DD000934E6346316818AF486A052104F0B4FA9F
:101DE000039028200597391C00198CC88CC1211C30
:101DF00034311BA8049184468CC98CC0316818AA60
:101E00006346486A032104F09FFA231C049030A81B
:101E1000011C4033844685CB85C184CB84C135AB5E
:101E2000211C0593181C54318CC98CC084C984C0F2
:101E300031686246486A35AB052104F085FA1EAB6D
:101E40009C46231C05906146683385CB85C11B6881
:101E500078340B6022AB191C85CC85C1246862469E
:101E60000C603168486A042104F06EFA3368039FFD
:101E70001B6B6C4CBB420ADC049FBB4207DB019B23
:101E8000059FB8331B68BB4201DC834221DA019B0A
:101E9000BC33187800281CD1694601230B764B7699
:101EA0008B767C235B42CB76221CC323888314323F
:101EB0000B7706A904F070F96269531E6361002A6A
:101EC00009D108A9C423101C8A8008920B7104F060
:101ED00063F90323636104F081F8071C04F09AF8A6
:101EE000029A032A02D0002F03D107E00124002F19
:101EF00036D0002004F07AF8012431E033683C1C2D
:101F00009033188800282BD1029F012F02D0022F76
:101F100001D002E0029804F075F904F06DF933681D
:101F2000071C92331B780022834218D0904208D0BD
:101F30000AA91123101C8A800A920B7104F02CF953
:101F400008E00CA913233A1C88800C900B7104F054
:101F500023F93D1C3368002492331F7000E0141CE9
:101F600031680B1C943395311A780978914215D059
:101F7000002A08D101250EA91D70C5238A800E9262
:101F80000B71101C08E0002510A91D70C6238D8060
:101F900010950B71281C2A1C04F0FEF807F068FD50
:101FA000A84209D0281C07F05DFD281C07F008FD99
:101FB000002002F049FB062404F03CF8051C04F064
:101FC0000BFD0379AB4200D0057104F02BF804F04F
:101FD00039F833680021A8335956021C81421AD0BF
:101FE0001870012805D1002212A912928A801A23A2
:101FF0000DE0022805D1002214A914928A801B2327
:1020000005E0002807D116A9169088801C230B71C3
:10201000101C04F0C1F8201C3BB0F0BDD89B0000A0
:1020200000000020D0000020F0B5B1B002AF041CC9
:1020300004F0D2FC03F0FEFF402100220020CA532E
:10204000CD19391CA623021C3C312B70F86304F017
:10205000A3F8FFF739F9D44E6D463368BD611869AE
:10206000DD68DB6928187B62C3185B00BB621A1C41
:102070000A33DB08DB006946C91A8D4602AB3863B8
:102080000232181C0021FB6207F058FDC7483C22B1
:10209000006800217861083007F050FDC44BF96AF0
:1020A0001B686D004D1919605D607D6304F094FC40
:1020B0003A6B796A051CFB6A50004A00291CD4312E
:1020C0001818CC3507F0F8FC2B68B86AFD6A2B525B
:1020D000002002F019FE391C6C31336800228A801E
:1020E000B24A1D681B7912684B708B7043230B71C9
:1020F000131C9C330420C8701A6802200D7004F071
:102100004BF8391C643100238B803368A74A1B7C51
:1021100012684B708B7067230B71131CA033042063
:10212000C8701A68022001250D7004F035F8616846
:102130002068FA6A7B6BFEF737FF2169B8620028D6
:1021400001D0081C0AE07B6BE06862690093FB6ABF
:10215000FEF7EEFFB862002803D02069FFF79FF872
:1021600098E104F015F9786304F036FC061C8F48FA
:10217000796B02684B8952699A4223DDE268002A32
:1021800020D1331CBD331B78002B1BD1BB6A391CFB
:102190005C318B807F221B0E0D704D708D709343D0
:1021A000844D042080220343524213432A1CCB70E7
:1021B0000C32BF23B86A0B7103F0EEFFEB68013BF2
:1021C000EB6002E07B4B5022DA60784B1B68943363
:1021D0001B78012B00D0D3E0731DDB7F764ABB60F8
:1021E000B968E36800290CD11978012978D1DD6834
:1021F000002D75D00220195E516006215B5E936050
:102200006EE0BD68012D6BD118788446002867D137
:10221000306B002862D0956851687D62396326254D
:10222000715F3D6B3962691A796351602A25715F6C
:102230007D6AF961691A79609160796B7A6879676A
:102240003D6B796ABA678022FD67D15102255A5FDA
:102250008421CA5106255A5F8821CA51DA688C2523
:10226000EA5104215A5E9025EA5108215A5E1B6901
:1022700094259821EA51CB513A6AFD699C23DA51A1
:10228000A021A422D051CD512825735FA820C3518D
:102290002C21735E786BAC22D351736B7A68C117B3
:1022A000B025EB51D51743184B40511969405918C7
:1022B000B420C151BB68391C54310B7011236246E4
:1022C0004B708B707C238A805B423A1CCB706046DB
:1022D000F32374320B7103F05FFF01E050609060F4
:1022E000324D2B685A680A2A4AD1E0680578002DD9
:1022F00046D171698C4630494A688968D0171218EE
:1023000042407A63CA17786B891851404118796343
:10231000596A95312DDB5A69632A2ADC6146C81750
:10232000400F4218786BD210904222DD391C743174
:10233000E9232A1C281C8D807D670B7103F02CFF7C
:102340001A490A68131CB833196801311960032946
:1023500012DD953215705022D0191D60391CFD23F5
:10236000D5534C3103702A1C281CFD6403F014FF64
:1023700002E0B83300221A600F4B00225A609A60C4
:10238000351CBD357D632B78002B04D0331CEC331A
:102390001B78002B14D0094B1B78002B02D0E0686F
:1023A00004F04EFFE0682EE0D8020020000000207C
:1023B00004000020D00000202C0300203208002060
:1023C000624D2B7B002B20D120690B250378002B3D
:1023D0001BD1013DE068002D15D0331C42331B7822
:1023E0005BB2002B02D0FA235B00C360331C433383
:1023F0001B785BB2002B02D0FA235B0003612169DA
:1024000000F0B6FBE5E704F01BFF7D6BE1682B787D
:102410004E4D68462B736D467D630D780A69AB009F
:102420000733DB08DB00C01A854602AE002A06DD52
:10243000013DA80030182031042207F03DFBE1687F
:10244000CB68002B06DD681E800030181C3104228A
:1024500007F032FB3E4B44251B68452118681A796A
:10246000E8554625CA55EA551B7E4720C3554821E5
:102470000023CB557E235B424922D355FD6AE36896
:10248000391C1A78032000954431331C03F050FEA8
:102490007D6BAD4602F056F801F056FC051C04F0C9
:1024A0009BFA061C03F0B6FD2A4CF4212268FF318A
:1024B0008C465169254B614527DC5236317800291D
:1024C00023D119691E2916DDBC3211780843C0B228
:1024D000002805D020485D69854205DC002905D12A
:1024E0001E495869884201DD012100E00021117078
:1024F00000221A6104E0FC229200AA5859698A1845
:102500005A611A6901321A6102E000221A615A61A5
:10251000134B00221B681A605A60BD69AD4601F07A
:1025200099FE236872201856FFF738FC002800D166
:10253000B86A0C4B1B681A680B4B9A4202D002F027
:10254000FDF8FEE7BD462FB0F0BDC0462C030020CD
:10255000D80200200000002030750000A8610000B3
:10256000040000206C0B0020CDCDCDCDF0B5A1B086
:1025700000AF01F089FC03F029FD041C07F0E0F92D
:10258000002007F01DFA00F0D5F9FEF7D1FAB64B9E
:102590001B68D8681969DB694218D31803225343B2
:1025A0000733D34093406A46D21AB04B95461B6816
:1025B0009A6203F00BFD061E082E00D134E10828B4
:1025C0000CD8012800D1CAE0002816D0022800D17A
:1025D000CCE0032800D115E1341CEAE70E2807D827
:1025E0000D2800D330E10C28F6D103F033FD24E1AF
:1025F0000F28F1D103F02EFD30E103F0FDFC00289F
:10260000EAD16846386001F089FD381C311C24226B
:102610005C3007F093FA3D1C381C311C1822203521
:102620002C3007F08BFA311C0A22281C07F086FA9E
:102630008D4B1B68D9681869DB690A18D3189B0091
:102640000A33DB08DB006846C01A89009200411893
:1026500082187960B964FA645C212C22C919D219F4
:1026600006238546B860786439657A65BD65FB6088
:10267000F868022802D8002814D004E0F968032979
:102680000CD006295FD101F063FFC0B203F0C6FD94
:10269000764B00211B68986A03F0ACFAB868796839
:1026A000FEF75AFA714D5C222B68D219DA603A1C97
:1026B0002C321A610C3A5A61002C01D003F0CAFC8A
:1026C0006B4B00221B681A6003F0A2FD041C01F092
:1026D0003FFFA04217D0201C01F03FFF01233B76B3
:1026E0007B76BB767C235B42391C3A1C0020FB7650
:1026F0001831E9231432B8837C613B7703F04CFD39
:102700000323FB6016E0381C4430FFF78DFC584B68
:1027100058491B68F8601A688A4201D001321A6071
:10272000002807D103F068FC002803D103F04EFC19
:102730000028C9D02B6800241869FEF7B0FD2B686B
:10274000DC601C615C6103F057FC002802D0386833
:10275000854641E703F03AFC002889D0F7E703F00B
:1027600079FC03F033FC0128FBD035E7FEF782FD4E
:102770003E4B1B681869FEF792FD03F0EDFB00204D
:1027800001F062FF01F0FAFEFEF7A8F903F062FC27
:1027900003F06AFC05282CD00CD802281AD002D8E5
:1027A000012814D027E003281DD0042823D102F0EB
:1027B00053FC20E0152810D004D8062816D0142881
:1027C00005D018E016280BD017280CD013E0FEF720
:1027D00011FF10E0FFF700F80DE0FFF729FA0AE01B
:1027E000FFF778F907E0FFF7ADF804E001F0F3FC3C
:1027F00001E001F0E9FC03F0E9FB0228C8D0FEF794
:102800003FFDE9E603F026FC184C01212368986A95
:1028100003F0F0F923680021986A03F0EBF903F064
:10282000D5FB0328FBD0D7E603F014FC01F086FFAC
:1028300003F0CCFB0828FBD0CEE6FEF7A7FD03F0A3
:10284000C5FB0C28F9D0C7E603F004FC002002F019
:1028500075FA03F0BBFBB042F8D0BDE603F0B6FB5F
:102860000F28FBD0B8E6C046D802002004000020A4
:1028700000000020FFFFFF7F38B5041C0D1C03F093
:102880001DFC012811D0002802D003282ED04DE0D5
:10289000274B02351B68AD00DB685D196B68DB10E8
:1028A000FF2B00DDFF23637140E0214B1A68AB1C56
:1028B000D1689B00CB185B68DB10FF2B00DDFF238A
:1028C0006371D368AD005D191F221E23AA56EB5613
:1028D0001D21D31A1C226956AA568A1A934202DD78
:1028E000A371E27122E0A271E3711FE0104B1A683C
:1028F000AB1CD1689B00CB185B68DB10FF2B00DDA5
:10290000FF23A371D368AD005D191F221E23AA56B1
:10291000EB561D21D31A1C226956AA568A1A9342D5
:1029200002DD6372A27201E06272A37238BDC0461A
:102930000400002008B5042003F0FAFC00F00CF8B5
:1029400000F086FF03F086FA04F046F8014B0430ED
:10295000C36708BD792800007047000030B5D31A5E
:10296000151C0F4A03ACC93D2478411A95420BD877
:10297000C81709184140D8171A18424091420CDD77
:1029800060426041C0B20AE0CA17D81789185140A6
:102990001A18424006204243F0E7DB43D80F30BD0F
:1029A0009E0F0000F7B514224243354B11219A18AF
:1029B0005156147C334A022945D164B2611E00D5B8
:1029C000611C052747437D183F19AE000097BF00E3
:1029D0009E59DF590235BF1BFC173F196740009C09
:1029E000AD000234A4005D591C590197641BE71720
:1029F000E4197C40A700BC46019F674501DD012426
:102A000004E0019FBF00BC4201DD022414540129EF
:102A100001D0013100E000210524444361188C00FD
:102A20000231890059581C59491BCB17A61BF417B2
:102A3000C918175C5940331963400324012F05D08E
:102A40006343994205DC0023135402E061438B4247
:102A5000F9DD115C43000C4A02290DD10B490C5CD5
:102A60000B49095C8C4201D00021D152D15A09484E
:102A7000814203D0013100E00021D152F7BDC046B0
:102A8000840B00203C080020380800203608002075
:102A900034080020FFFF0000F0B514254543334FF4
:102AA000041C7E19301C85B0103001910390102158
:102AB0007156009103F072FF009A02906300013298
:102AC0000DD10198C31802215A5E0398EA510622DB
:102AD0009B5EB360002333740123437043E000998D
:102AE000012902D00E1C013600E0002605276743AD
:102AF000019A0098D5183B1802202A5E9900944646
:102B00001A4A023350586146401AC2179B009C462D
:102B1000801806216B5E5040144A00936346D158DA
:102B2000009A891ACB17C918594004F037F8029B4C
:102B3000DE331B78984216DD02202A5E0B49BF194E
:102B4000BB00CA500622AB5E0237BF00CB51142334
:102B50005C430C19627C231C51B22674103301298A
:102B600001DC01325A7005B0F0BDC046840B002074
:102B7000F0B5CFB01891071C03F010FF03F014FC60
:102B800003F024FF089003F027FF089B0C90A2336A
:102B90001B7801229A40131C089A8430A3321278C1
:102BA00000219B1A089AA432127815909B1ADBB266
:102BB00018223AA81F9306F0C1FF03F03BFAD74B47
:102BC0000B90191C2CAA30C930C200222E923092D0
:102BD000D3488C2252002F90319232AA50C950C251
:102BE00040A8021C70C970C261C961C209682C3357
:102BF000116047A90A1C70CB70C213CB13C21B68AB
:102C00001360C84B1B68BC331B78002B08D1089B92
:102C1000A6331B881E93089BA8331B881A9302E0D7
:102C2000C14D1A951E95C14B00261B685B69002B90
:102C300008D0013B5A00BA181820125E9642F6DA04
:102C4000161CF4E70C9B0899B833C96C1868089AED
:102C5000089B05917833C9B2503203F075FB3B787D
:102C60000990022B3ED11822BB5E1A243D5FAB4275
:102C700001DD079301E007951D1C0C9B26A9B833C5
:102C80001B68002034938023079C88805B420420CB
:102C90000343012235940A700324CB700D202923AD
:102CA00034AA0B7136954C708C7003F075FA099B41
:102CB00073439B129D4215DA28A9399380234C70E7
:102CC0008C705B4204240020012223433795079D2A
:102CD00088800A70CB7000202A2337AA38950B71A0
:102CE00003F05AFA3B78002B33D0089D788A2A1CCF
:102CF0002B1CA9790832203303F026FBFA686421E3
:102D00005024514344438A4BA14220DD1C68894D25
:102D1000AC4201D001341C601B68012B19DD642317
:102D20005843814215DA3792BB8A2AA93893012386
:102D30000B7002234B708B707C235B420020CB70A6
:102D400037AA252388800B7103F026FA01E00022C0
:102D50001A600C9B3A78ED331A70744B1B685C69EF
:102D6000099B651C73439B121393143B1693231CFE
:102D70000C9E11339B00F31809930C2363433AAE66
:102D8000F618E31D5B00AD00FB187D1907960433B0
:102D9000002604350E930D96002C00D1D4E02E6849
:102DA000013C002E00D1ADE05E4B1B6855331A7814
:102DB0000823101C9843031C59424B41DBB211936A
:102DC000002B2BD05C4B002A0AD05869072147AB57
:102DD00040AA03F0B9FA322343430A9610931DE048
:102DE0005E6802210A969E68DB682EAAF618301CDF
:102DF0002CAB03F0A9FA02210D9032AA30AB301CA3
:102E000003F0A2FA2B68AF2200904C49181C120163
:102E10000D9B03F07BFA6E23434310930E9E308884
:102E2000089E321C331CB1790832203303F08CFA2F
:102E30000F9018986300FE18C31802215A5E0221F1
:102E4000705E12920621725E3D490D9206229B5ED3
:102E50000A5D129900920D9AFFF780FD394B1855C3
:102E60000B9B012B04D0089B3E331B780D9301E094
:102E700005200D90079B2A680C3B0E981A60079B53
:102E80000188083B19601821735E07990C9E04396C
:102E90000B6031194231087864214A43002803D07D
:102EA0000D9E40B2B0420CDC0F9E71438A4222DB81
:102EB0004A22FF3293421EDD139EB3421BDB642382
:102EC0000EE008990F9E3831097871438A4212DB6F
:102ED0002C22FF3293420EDD169EB3420BDB6E2393
:102EE0000A9E7343109EB3420CDA119E002E09D045
:102EF0000B9E012E06D0099E00232B6033603B7889
:102F0000013B3B70099E043D043E0996079E0C3E22
:102F100007960E9E023E0E963EE7C046609C00005D
:102F2000260200000000002070170000D8020020D8
:102F300044030020FFFFFF7F300B0020140500003A
:102F40003408002036080020D44B0C9E1D68D44B5A
:102F50006C691B68611E221C0A93631C9B00113262
:102F600049000820FB18920079183419C01904335D
:102F7000B21806314134844663453ED01E68002EA7
:102F800036D02678002E03D00D9876B2864210DC1B
:102F900000200E5E0996052E05DD0C9E09987669C7
:102FA000053EB04224DB0A9E3C20365E022E16D13E
:102FB0001EE00026885F0790002804DD0C98079E1D
:102FC0004069864214DB0A9E3D36367876B2002E82
:102FD00005D10A9E3C363678013E012E08D90B9E5B
:102FE000012E05D000261E6016603E78013E3E7020
:102FF000043B043A0239013CBEE76C69651E6D0072
:103000007D190635002C12D0013CA300FB18DB68AB
:10301000002B0AD00021685E03F0C6FF2E1F288017
:103020000022B05E03F0FEFF3080023DEAE79D4BD8
:103030003C701B68D86800F019FCFB68002B15D0A9
:103040003793BB8A34A9389318257B5F12203993B4
:1030500001230B7003234B708B707C235B42CB707E
:1030600037AA36238C800B7103F096F88B4B189E91
:103070001B685B6907931A1C01339B00F118013A26
:1030800004315200FB1804331091B118079E1193BC
:103090000C2373438C1CBA18951C0F940632159C94
:1030A00009920C9AE3180E9384327300D21822927C
:1030B000189E7D4A0B959A18FD180631F3180024C6
:1030C00013912592239524931594079C002C00D1ED
:1030D00000E3079D119E0C9C013D33686419079520
:1030E0001994002B00D1AFE2423423780D9A0133BA
:1030F000DBB259B206321694914201DC237003E030
:103100000D9B169D04332B70169E00243457012C02
:1031100000DC21E2A01C0321FDF74AF80E9A0D1CE9
:103120000C3A0323022C0AD1013B10D30B9C59000B
:103130002088099E505230885118C880F4E70F9CAF
:10314000490023885218139E13803388D380169C1D
:103150000D98267874B2844200DCB5E1681D032125
:10316000FDF726F81B910E996B000C39CB181293C2
:1031700000229A5E1791281D03210A92FDF718F884
:10318000179D4B001298EB1814930625455F022CEF
:1031900000DD022614990A9A0020085E76B2311CDE
:1031A000101AFCF7AFFF149B20900620185E311C0C
:1031B000281AFCF7A7FF209E21900A9836181C9623
:1031C000219E75191D95032C11DD0B9C0F9D002070
:1031D000205E0023EB5E099C139DC01AC6170022D7
:1031E000A25E0023EB5E80197040D31A0EE0229D90
:1031F000159E0B9CAA190023E35E1621505E1A252A
:10320000525F181AC417001960409B1ADE170B9CF6
:103210009B197340229D159EC0182388AD19EB821F
:103220002C1C0A95099D96212B884A0063831A9CC1
:103230001E9B009403F06AF80B9E129C051C002054
:10324000365E0022A25E099C149612990026A65FA3
:10325000149CA31A06240C5FD8171B18341B434078
:10326000E017241844401C190798104B195C104BA8
:103270001B5C99420ED10F4B1B5C022B0AD1259986
:1032800015980B18023B1B88192B03D9F423FF3325
:103290009C4211DD14982B1E0FD117E0D80200209C
:1032A000000000200400002038080020360800201C
:1032B000340800203C080020DA4B149819196043A8
:1032C00053431B1848101818FCF71CFF0A99129A50
:1032D000C884D388301C002D08D018B2291968433F
:1032E00074434B100019C018FCF70CFF0A9C149D86
:1032F00060851C9C2B1BDD171D9C5B196B40351BCF
:10330000E8172D1845405D190024962D01DD2C1C71
:10331000963C0F9D0020285E149D281A139D0021C5
:10332000695E711A03F03AFC129E1B9D36886B0091
:103330001C96179E089AF3181D88A3321B951278C5
:103340000B9E14923688089A1D96A4321278129910
:103350001792089AC888A2321578089A0999A53256
:103360001678DA880B88B049097800291DD11F9991
:1033700000B24843149912B24A4317991BB25943F9
:103380008218521821992A417143962029415218D6
:10339000C000634350439622D200A118C0184A10BF
:1033A0008018FCF7AFFE099B1880A04B1B78002B00
:1033B00020D11D981C9903B21F9A08B21B99504343
:1033C0000AB214994A438018179A5A4380189622D1
:1033D000D200A118209A284156432E4185199620E3
:1033E000C0005C4368434A1000198018FCF78AFE4D
:1033F0000B9C2080169D00210B9E099C6956002283
:10340000B25E0023E35E04290AD10F9D139C0020C5
:10341000285E101AC617801970400022A25E09E0CB
:103420000A9E0A9C1E20305E101AC11740182222E4
:10343000A25E48409B1ADD170B9E5B196B400A9CED
:10344000C0183388099DE3832B88261C6384089B5E
:103450008024AA331988089B6400AC331A8800942E
:10346000002302F053FF0B9D2623F35E0022AA5E89
:10347000241A424363430B9DD3181B12099E2B80D1
:103480000023F35E0A9D58432A23EB5E099E5C43AA
:10349000089B041924123480483300201B5E109DC1
:1034A000119E2C683068002B0BD0221AD1175218AD
:1034B0004A409918504363434D1018184019FCF7BF
:1034C00021FE119C206047E00D9DAC4244D10E9E30
:1034D0000D980C3E033003210A96FCF769FE0B9D04
:1034E0004B002C88F318099E1C803288002412910E
:1034F000DA800325261C129968180321FCF758FE70
:103500000A9A4900511800200B5E013DF618062268
:103510008B5EE418002DEED1301C0321FCF7F2FD88
:103520000B9E85B23580201C0321FCF7EBFD0E9B22
:10353000099C80B2083B20801D800E9B023B1880B6
:103540000E9B0A3B1D800E9B043B18800E9B0C3B80
:103550001D800E9B063B18800B9D0F9E2888099CA2
:1035600030802188139D119E29803568109C239EF0
:103570002560159C3319249E5A8A3319169C5A8249
:103580000023E3560D9E2A4AB34223DC0C9B4224BF
:103590001C57012C02D01378002B07D10023137085
:1035A000244A1370244A1360244A1360002D0CDD52
:1035B000079D002D09D1012C07D11D4B00B21C70B5
:1035C0001D4B09B218601D4B19600123119E5B420F
:1035D000336021E01378002B1BD0174C174D226865
:1035E0002B6800B209B2801AC91A03F0D7FA144B3B
:1035F0002A6818602368632B03DD124B643A9A42F1
:1036000004D9952802D80B4B01221A70084B0022CE
:103610001A703B7801333B70199B002244331A70B7
:103620003FE0C0463075000031080020300800201F
:103630003308002032080020680B0020740B0020A3
:103640007C0B0020CC100000199A00214232515608
:103650000D9CA14222DD109D2D68002D21D01998CE
:10366000443001780131C9B20170089849B23F3045
:103670000078814202DD109E336011E00F9C0B9DAB
:103680002388139E2B803388099C109D23802D68EE
:10369000119E35603B7801333B7002E0109C236043
:1036A0001370109D0F9E043D023E159C10950F96C1
:1036B0000B9D139E023C023D023E15940B95099C06
:1036C000119D13960E9E023C043D0C3E09941195EB
:1036D0000E96FAE43B78189D0C982B700C9B523395
:1036E0001C70574B0C9C1B681E690B93351C6F3567
:1036F0006519341C2734640004190434013E00D2D7
:103700007EE02388002B0DD00A21625E1BB2002AC6
:1037100002DC0898428F01E008998A8F934201DA0F
:10372000002323802088002842D02B787F2B01D0D3
:1037300001332B700022AA560992022A1CDD089B35
:1037400000B248330022995E62890A91002912D0A2
:1037500013B21A1A9C46D317D1180A9A59406346D5
:103760000D9151185A4394460D9A4B1050436044A2
:10377000C018FCF7C7FC20802388089A6381403278
:1037800012780998904203DC01235B4223800CE00D
:103790000C9A1BB25232117801311170079999427B
:1037A00003DA0C9A07935332167000232B7124E02E
:1037B000089B00224033AA561B789A421BDD63897E
:1037C000002B1AD02A7908990132D2B22A714131DC
:1037D000097852B28A420EDC079A23801BB29A42C1
:1037E00003DA0C9A0793533216700C9B52331A78F3
:1037F00001321A7001E060812870013D023C7DE7D2
:103800000B9D6C69002C18D0013CA300FB18DB68F1
:10381000002B07D060B2391CFFF73EF9201CFFF7E0
:10382000C1F805E014236343064A9B18FF221A746B
:10383000054B1A5D054B1A55E4E74FB0F0BDC04685
:10384000D8020020840B0020360800203408002015
:1038500008B5A02002F06CFD034B00211860A022E7
:1038600006F06CF908BDC046CC0B0020F0B59BB04B
:103870000790FDF727F903F091F803F0A7F803F09C
:10388000ABF80D90FDF724F9CA4B0A901A68CA4BA1
:103890001B680B93BC331978C84B1B685B69002904
:1038A00000D1AAE002935024013B5C43079E5D00D7
:1038B000751902351419029E002E00D11FE2029FD5
:1038C000079E013FBB00F318DA68FA2302979B00BA
:1038D0009A4200DC8CE02368082B01DC0133236072
:1038E0000023043B191C243105D0E218976AD06CE0
:1038F000D7621065F5E70022AB5EA3600426AB5FDC
:103900002668E362231C092E59D1043B013E09D3EA
:103910007200D96A4027BF18684639521F6D15A931
:103920005752F2E700231E1C0136B4460027402000
:103930006946C018405A10A95A18D2190390059226
:103940005088039A01B212B28A4206DD4022D21890
:10395000694650520398059A508015AA995A0191C8
:103960009918C919488805910199039009B200B2C4
:10397000814204DD039901989952059A50800121F2
:103980008C4462460237082AD1DD0233052ECBD1A2
:103990000026301C0B1C5A004027BF1869467F5E6A
:1039A00015A9BC46525E01336044B618082BF2D10B
:1039B0000721FCF7A7FB07212880301C14E0082E04
:1039C00018DC0027231C381C3A1C0433B24205DAE9
:1039D000596801324018996A7F18F6E7311CFCF7E4
:1039E00091FB311C2880381CFCF78CFBA88001E07F
:1039F00000232360023D503C5DE70193079F013B9C
:103A000059007918019F50247C4317196C4A8E1C69
:103A1000D218019B06960133079E9B00F3180631CE
:103A20000433089104920993019E002E00D166E1AF
:103A3000019E013E0196099E33683E1C503E02964F
:103A4000002B3CDD049E00233A1C33704C3A029E4E
:103A500013703368032B01DC013333600023043B14
:103A60001A1C103206D0029EF2185069916B9061B8
:103A7000D163F4E7069E3B1C0022B25E483B089EE1
:103A80001A600022B25E029E5A6200253468331C1E
:103A9000281C2A1C0433A24205DA59689E6A401881
:103AA000AD190132F6E7211CFCF72CFB069E211C08
:103AB0003080281CFCF726FB089E308011E102981C
:103AC0000668042E08D10A99019A09690232920007
:103AD0008A185268002A08DC3A1C4C3A11780129ED
:103AE00000D0F8E0002B00D0F5E00D9A01981318F3
:103AF00042331B785BB2002B00D1E4E0002E04D0EF
:103B000004990B78002B00D0DDE0049A12780C9217
:103B1000002A62D13B1C403B1C6804331B68E51A39
:103B20003B1C1C3B1C6804331B68E41A002D00D1AD
:103B30000125002C00D1012400230393181C0299B5
:103B4000CA189168D26A40180399043389180391FE
:103B5000102BF4D16A42311C0E92FCF7D3FA0323E6
:103B60006B43C3180593311C634203980F93FCF712
:103B7000C9FA03236343029AC1180523013B043A9F
:103B8000002B08D0059E0E989661361805960F9E5C
:103B9000D1638919F2E7E817E1172A18641842403F
:103BA0004C401419C82C0DDD3B1C01224C3B1A70F3
:103BB00013E0C046CC0B002000000020D8020020FB
:103BC000480300200B9A3D321178082291433A1C99
:103BD0004C3A002900D1012313700C9C049E01343F
:103BE000E4B23470032C03D13B1C00224C3B1A700E
:103BF000029EA4003419E36A181CE03008DA3B1C6A
:103C00003A1C243B483AE1251B6816686D4209E0DE
:103C10003C4A934215DD3B1C3A1C243B483A1B6846
:103C20001668394D391C44390868EA1A801B50431C
:103C30003A1C203A1168C91AFCF764FA8619A66082
:103C4000E562A368191C9F3108DA3B1C3A1C483B0B
:103C5000243AA0251B6816686D4209E02B4A93425E
:103C600015DD3B1C3A1C483B243A1B681668284D5E
:103C7000391C20390868EA1A801B50433A1C443A20
:103C80001168C91AFCF73EFA8619E662A560A068B9
:103C9000069E019A3080E36A089E023233800A9EB3
:103CA00092003369099E9A1852686421520032606A
:103CB000019E7200079EB21891829621C90011835D
:103CC0001B78337005E0049E3A1C00234C3A337095
:103CD0001370002303E0049E002333701370029ED0
:103CE0003360069E503F023E0696089E023E0896AE
:103CF000049E013E0496099E043E099694E61BB07C
:103D0000F0BDC0468C1100008D110000A7200000FE
:103D1000A820000008B5034B011C6422186805F0B8
:103D2000CBFE08BDE8000020014B18687047C04674
:103D3000E800002008B5034B011C3422586805F048
:103D4000BBFE08BDE8000020014B98687047C046E4
:103D5000E8000020014B18607047C046540B00205B
:103D6000014B18687047C046540B0020F0B52F482F
:103D70008DB006782E4BF6B203961B78DBB2049317
:103D80002C4B1B78DBB205932B4B1B78DBB20693D5
:103D90002A4B1F782A4BFFB202971B78DBB207939E
:103DA000284B1B78DBB20893274B1B78DBB20993B7
:103DB000264B1D78264BEDB20A951D78254BEDB2AA
:103DC0000B951D78244BEDB201951C78234BE4B282
:103DD0001978234BC9B21A78224BD2B21B780078DB
:103DE000DBB2844665460020AA2D1CD1BE19079F70
:103DF000089DBE19099FAE190A9DBE190B9FAE19E9
:103E0000019DBE19AE19A41909195218049E9B18D8
:103E1000059F15489B19069ADB1900789B18DBB2A1
:103E2000181A43425841C0B20DB0F0BD80BF000027
:103E300081BF000082BF000083BF000084BF00007C
:103E400085BF000086BF000087BF000088BF00005C
:103E500089BF00008ABF00008BBF00008CBF00003C
:103E60008DBF00008EBF00008FBF000080235B0469
:103E70000022188059809A801989012001431981F4
:103E8000C046988980B270470023114A11499A1898
:103E90008A4204D21049C95804331160F5E70F4B28
:103EA0000F4A191D043B934203D200221A600B1CD7
:103EB000F6E70C4B0C4A1360EFF308820433191D2C
:103EC000043B9A4203D9094818600B1CF7E7704776
:103ED00000000020EC02002078A10000F002002089
:103EE000C5090020CC0B00206C0B0020CDCDCDCD22
:103EF000104BC022920098580F4901409950995890
:103F0000FF208143402001439950985880210002AE
:103F1000000AC90501439950042201211A60196061
:103F200008211960FC3300215960044B19690A43C8
:103F30001A61704700E100E0FFFF00FF00ED00E0C4
:103F400070B50C4DA0260424F605291C221C301C3B
:103F500005F0B2FD2919221C301905F0ADFD301C09
:103F6000291C0831221C083005F0A6FDBFF36F8F15
:103F700070BDC046A89C0000144B70B580261D681B
:103F8000F6050424301C291D221C083005F094FD80
:103F9000301C291C221C08310C3005F08DFD301C12
:103FA000291C221C0C31103005F086FD301C291C08
:103FB000221C1031143005F07FFD301C291C1431F7
:103FC000221C1C3005F078FD70BDC046EC000020BE
:103FD00082B0002201920E4A01AB1168088E0A1CC1
:103FE00019880005090B000D2E32090312780143D0
:103FF000198001981103074A02400A430192110CEB
:1040000010220A439A70019A034B1A6002B070475B
:10401000EC000020FF0FF0FFA8000040384B70B507
:104020001D6880242B1CE4052C331978231CC03315
:1040300018687F2290431140021C04260A43201C6A
:10404000291C1A601831321CD83005F035FD201CAF
:10405000291C321C1C31DC3005F02EFD201C291CD3
:10406000321C2031E03005F027FD201C291C321CB9
:104070002431E43005F020FD201C291C321C28319D
:10408000E83005F019FD201C291C321C10311430B9
:1040900005F012FD236B082213432363236B0222D6
:1040A0001E432663236B13432363236B01221343B5
:1040B00023632B1DDA7FA16C013A124BD2B292031B
:1040C0000B401343A364A26C8023DB031343A3645C
:1040D000231CD4331968F02292040A431A60196829
:1040E000FC2212060A431A6032352A783F23A16C5B
:1040F0001A40054B12060B401343A36470BDC04623
:10410000EC000020FF3FC0FFFFFFFFC08023DB0566
:1041100000221A655A65DA677047000008B503483F
:104120000021A02205F00AFD08BDC0460080014024
:10413000054B8022196812030A431A601968034A62
:104140000A401A607047C046B4000040FFFFF7FF06
:1041500008B5164B164A19680A401A601968154ABC
:104160000A401A6019688022D2020A431A6019684C
:10417000114A0A408021C9010A431A601968802245
:1041800052010A431A6019680C4A0A401A601968F9
:104190000B4A0A40802189000A431A601968094ABB
:1041A0000A401A60FFF7C4FF08BDC046B4000040D3
:1041B000FFFFF7FFFFFFFDFFFF1FFEFFFFF7FFFF02
:1041C000FFFCFFFFFFFBFFFF8023DB055A6E04218E
:1041D0008A435A6670478023DB055A6E04210A43DE
:1041E0005A6670478023DB055B6E01209B0898436D
:1041F00070478023DB050202D86B120A000E00060E
:104200001043D8637047000008B50A4B00221A70AB
:1042100000F0B8FD8023DB050202D86B120A000E05
:1042200000061043D863D96B802252040A43DA6334
:1042300008BDC046CC09002072B6054B1B5C002BA4
:1042400003D1C04662B630BFF6E762B67047C046DB
:10425000CC09002008B50020FFF7EEFF08BD0000E4
:1042600072B6044B1B5C002B02D1C04662B6F7E766
:1042700062B67047CC090020F0B587B003AF796013
:10428000191CBA609C46039001C101229300FE589C
:104290006446002023689E420DD80D1C0192019BAC
:1042A000043D834205DD2B686B60019B013B01935C
:1042B000F5E7266004E001300E6004349042E9DB4B
:1042C00001320431032AE1D107B0F0BDF7B5264B26
:1042D000CB221B68920099181B78002B2CD1234D00
:1042E000234A2E68106801960289561CB600764251
:1042F000940000960C19009E043BB34209D02D2770
:10430000BC46019FBC4466463678E758F740E75004
:10431000F1E7837A2C68581C9A188000920040427A
:1043200089180023043B83421CD0221C2D321278B2
:10433000CF58D740CF50F5E7012B13D10C4B1A685B
:10434000131C3C331B78013B0CD31489907A201842
:10435000C0188000141C08185B3424780568E540F8
:104360000560F0E7F7BDC046F0000020EC0000203B
:10437000E8000020F0B580230122DB055A7085B0EB
:104380000320FFF759FF6A4B1A680023D356002B0E
:1043900001D000234EE0FCF795FBBC300378002BE6
:1043A00000D0BAE02825624C013D03D200232668E4
:1043B000191C36E020686F00CE22C3195200995AAA
:1043C000A626F62276005200985B9B5A1A1C01AB77
:1043D000FFF752FF2368F620DF19029B4000BB5312
:1043E00001998F233952039A9B00FA52DBE7514D12
:1043F000CE27F0187F005A19C5192D885200156074
:104400008F27A325AD00BF004219C019008812886C
:10441000051E954200DA151C904200DD101C281A7A
:104420000918023B181C5230E1D12268FC239B0082
:10443000D1506AE0023B1F1C523766D0D0183D4D68
:104440009D30FF305919008849000860F2E72822A2
:10445000161C6643364F76193868A43676008119E3
:104460008888A11C514349193B68A4314900591857
:10447000231D5A4352193B68A43252009A18898866
:10448000928801ABFFF7F8FE3B68029F9E19B78048
:104490006900019A5B18002C43D1F62149005A5259
:1044A00003998F2292009952013DD0D2002C35D130
:1044B0001F49214A0B680F1C4E33A6204000CE2511
:1044C00019186D000888591909881C4D41184910A0
:1044D0001160002605215020484318184D30FF3048
:1044E0000088864200DA061C854200DD051C013981
:1044F0000129F0D11249751B043A6419023B8A4222
:10450000DBD13A68FC239B00D450094B00201B6888
:10451000185601F0D3FB05B0F0BD0224013C28255C
:10452000C2E7A32189005A520399B722BAE7C046CD
:10453000F000002050C000209C800140FFFFFF7F62
:10454000FC7F014008B5FFF715FFFFF7BFFE08BD70
:104550008023DB051879C0B270478023DB051B7907
:10456000DBB2834208D001DA013300E0013B802155
:10457000DAB2C9050A71F4E77047000073B51E4B43
:1045800004221C688023211CDB051C481B7905F0D4
:1045900093FA2478FFF7EAFB194D002811D0194B44
:1045A000194A1B7812782E6852B25BB20092201C16
:1045B000C821D42201F0AAFE2B68F061DB69E4185F
:1045C00001E02B68D861002C01DA002402E0FF2C06
:1045D00000DDFF242B68E0B29C61FFF7BEFF802363
:1045E000DB055968094A0A405A60094B094A1968AB
:1045F0000A401A6073BDC046EC0000200400004071
:10460000F000002081BF000082BF0000FFBFFFFF5D
:10461000B4000040FFFFEFFF024B1B682C331878FB
:104620007047C046EC000020024B1B682E33187800
:104630007047C046EC000020024B1B682D331878F1
:104640007047C046EC00002008B500F0E7FBFFF71C
:1046500093FCFFF7BDFCFFF7E1FC08BD0002064B31
:10466000000A0138002258609A6005221A60C0468C
:104670001A68D103FCD5704710E000E0044B0549EF
:1046800000221A6059609A6005221A607047C0467D
:1046900010E000E0FFFFFF0010B58022D205546853
:1046A0000F21E40D0C400823012C04D05468E40DC4
:1046B00021405B1ADBB21C1C094B12791B68444376
:1046C000D969EB23891AFF315943064B0648C918AB
:1046D000FBF718FDC1B2201CFBF714FD10BDC0464E
:1046E000F00000203542000040420F00014B002244
:1046F0001A60704710E000E030B50E4D0E48AB6810
:1047000085B0C01A0193FFF7C7FF02A90123002457
:104710000B704B708B7004230190CB70201C6F23A7
:1047200001AA8C800B7101F037FD01982C6005B057
:1047300030BDC04610E000E0FFFFFF00F0B5294D9E
:1047400089B029482C6800F045FBFFF787FF002659
:10475000264FBC4222D280373B1B2027832B00DC14
:104760009F1002A9FAB2012300204A708A70BF107C
:10477000221C0B70CB70888001F00EFD231C3A1CAC
:10478000013A08D3002E04D119491868884200D094
:104790001E1C0433F4E7BF00E419D9E72B6804A911
:1047A000F31A0025019304230124CB70281CA723AE
:1047B00001AA8D800C704C708C700B71843701F0E5
:1047C000EBFC06A90420C870A823BE1B281C01AA64
:1047D0008D8001960C704C708C700B7101F0DCFCBC
:1047E00009B0F0BD6C0B0020801A06008013002079
:1047F000CDCDCDCD00487047C0810140024B186837
:10480000CB239B00C0187047F0000020044B1B68AE
:104810001889044BCA301B68800018180430704790
:10482000E8000020F0000020054B1B6818899B7AE7
:10483000C018044BCA301B68800018180430704739
:10484000E8000020F00000208023DB05996C802226
:1048500012060A439A649A6C1A439A640A4B5A1CC9
:10486000FF32002102C39342FBD1084A9342F6D1A2
:104870008023DB059A6C520052089A64996C044AB2
:104880000A409A647047C04600000240000402409B
:10489000FFFFFFBF08B58023DB051A6B10210A4319
:1048A0001A63FFF7D1FF08BD10B58023DB051A1C82
:1048B000B43211680F20814307200143BC331160DB
:1048C0001A686421120C12040A431A60FFF756FE9C
:1048D000FFF73EFCFFF734FBFFF74EFBFFF778FBDB
:1048E000FFF79CFBFFF712FCFFF7D4FF00F096FAEE
:1048F000041CFFF7FDFA62B6201C10BDF0B58BB0AA
:104900000590B14FB14C002800D089E0B04B1B6836
:104910001A1C92321278002A03D1BC331B78002B68
:1049200003D03B680622FC3302E03B680322FC33E1
:104930009A64A84B04221E68A748311C183105F060
:10494000BBF8311C1C310422A44805F0B5F8311C19
:1049500020310422A24805F0AFF8311C2431042292
:10496000A04805F0A9F8311C283104229E4805F022
:10497000A3F8331C2C3319789C4B7F221868114004
:104980009043021C0A4380251A60ED05AA6C984BDF
:104990001340AB64AB6C3F229343AB64A96C954B63
:1049A0000B40AB64944B308E19680005090B000D69
:1049B000090301431960311C2E3108788F49000327
:1049C000029018683236014002980143196033782A
:1049D000A96C1A4013068A4A08A80A401A43AA6416
:1049E0003B6822689988120B0905090D12030A43D6
:1049F0002260DA789B780F21D21A0A40814B296B0A
:104A000052010B40804913432B6308220C3105F0FF
:104A100053F87E4B00221B6804937D4B1E68CDE04B
:104A20003F68059D3B1CFC3301229A64954200D0EF
:104A300052E1764B04221D686748291C453105F078
:104A40003BF8291C49310422644805F035F8291C3B
:104A50004D310422624805F02FF8291C51310422FF
:104A6000604805F029F8291C553104225E4805F0FC
:104A700023F82B1C5A3319785C4B7F22186811409D
:104A80009043021C0A4380261A60F605B26C584B0C
:104A90001340B364B36C3F229343B364B16C554B82
:104AA0000B40B3642B1C5E331888534B0005196808
:104AB000000D090B090301431960291C5C310878BA
:104AC0004E490003029018680140029801431960A2
:104AD0002B1C60331B78B16C1A401306484A0A40FD
:104AE0001A43B26423683A891B0B1205120D1B038B
:104AF00013432360BB79FA790F21D21A0A40414B44
:104B0000316B52010B4013433363414B02951968DB
:104B1000404B8C461868D6E0049FBB183D3319788B
:104B20003D4B490058184078CB5C0290029D012013
:104B3000A8403A4FC0B21B01DB19069059682025E6
:104B40000909AD186F460F200840E95D0790032062
:104B50004843B16A0127081801784578C9096D00F2
:104B60000D4381780078394049020D43029901953F
:104B70000431B940FD40CF5A40067F0A7F023D43D1
:104B8000CD52CF5A000CFF05FF0D3843C852069F87
:104B90000799019DB9430120029F0540BD4029436B
:104BA000C9B20F25081CA94200D9281C0540586825
:104BB000F0212D018843284358600132049B3C3387
:104BC0001B789A42A8DB87E0F0000020D400004068
:104BD00000000020EC000020D8000040DC00004075
:104BE000E0000040E4000040E8000040C000004059
:104BF000FFDFFFFF3FF0FFFFA8000040FF0FF0FFC7
:104C0000FFFFFFC01FFEFFFFA89C0000E800002080
:104C100004000020D8020020BC9C0000004000409E
:104C2000029B3C331978344B49005E187678CB5C94
:104C30000496049F0126BE403049F6B21B015B1862
:104C400006965E680F27360937400797C6680769DA
:104C5000F1198A18032151436246926A01275118BB
:104C60000A784E78D209760016438A7809783A4055
:104C700052021643049A00960432BA40FE4001964E
:104C8000D65A019F760A76023743D752D75A490639
:104C9000FF05FF0D090C3943D152069F079A009E6C
:104CA000BA430121049F0E40BE401643F2B20F26C4
:104CB000111CB24200D9311C31405E68F02209015A
:104CC00096433143596002992B1C4A1B01310291D2
:104CD0003C331B789A42A3DB094B01221B685A70B4
:104CE0002168084A0A40802149010A432260059D43
:104CF0001D700BB0F0BDC046BC9C000000400040E1
:104D0000F0000020FFCFFFFF08B5FFF7F7FD094BCC
:104D10000022DA70084B10201B68FC33DA64802311
:104D2000DB051968814319605A701A6801210A432A
:104D30001A6008BDCC090020F000002008B5FFF77C
:104D4000E3FFFFF7FFFB08BD10B5041CFFF796FC5F
:104D5000201CFFF7D9FF80230122DB055A700320B6
:104D6000FFF77EFAFFF7C8FC10BD08B5FFF7CCFFD0
:104D7000FFF700FB08BD8023DB05986C8004C00FA3
:104D80007047000038B58023DB051979051C586889
:104D90000F22C00DC9B210400824012804D05B685E
:104DA000DB0D1A40A41AE4B2FF23591AEB2359432E
:104DB000064B0748C918FBF7A5F9054B211C5843BA
:104DC000FBF7A0F9291CFBF79DF938BD354200001F
:104DD00040420F0038B58023DB051979051C58685F
:104DE0000F22C00DC9B210400824012804D05B680E
:104DF000DB0D1A40A41AE4B2FF23591AEB235943DE
:104E0000044B0548C918FBF77DF9211C6843FBF7E3
:104E100079F938BD3542000040420F00F0B500215D
:104E200085B0A022834804F089FE834B00221B68D2
:104E30000A211889019001980138019029D3019C19
:104E40007E4F1819057B6E00F05DBE197678223D05
:104E50000296012DEFD9774E0501AD196F680F2627
:104E60003C1C3440012703943C1C029FBC40039F20
:104E70003C43344003946C68271CB7433E1C039F9B
:104E800037436F60814200DD011C8242D3DA021C8D
:104E9000D1E79C7A0394039F013F039724D3039D9A
:104EA000664F5819363006787600F05D0296614EEE
:104EB0000401A4196568AC4666460F252E40B44629
:104EC000029EBF197E780127B74066463743666861
:104ED0002F40AE433E436660814200DD011C8242AA
:104EE00000DB101C021CD6E7181C3C300078029036
:104EF000002822D01D1CFF200024029FEE1ABE4273
:104F000015DA2E1C3D3636784C4F7600F75DA446F8
:104F10000397BC4200D2BC46039F6646F4B2844667
:104F2000B84200D9BC466646F0B20135E5E7444DCB
:104F300086002D682E81A871EC7141488C000068B4
:104F40000394848081738170C273C27009240A2122
:104F5000013938D33B4E0F258A19120157790E1C9F
:104F6000AF432E403D1C35435571374E7F250329F5
:104F700005DC1768AF433D1C254315600BE0271C7B
:104F800007290DDC0C372F4002971768AF433D1CF3
:104F9000029F2F43176015682E408025AD000CE05E
:104FA00018372F4002971768AF433D1C029F2F43CD
:104FB000176015682E4080256D002E431660013C59
:104FC0007F221440C4E7214A039D14688021240BEA
:104FD00024032C4314608478C578C9052D1B0F2643
:104FE00035401B4C0E6B6D0134402C430C63146830
:104FF00018492140E024640321431160DD7A002137
:105000000A24002D0ED0013D5A19343216780B4A6D
:105010007600B25C944200DD141C914200DB0A1C55
:10502000111CEEE7A30083818472C172012005B0D8
:10503000F0BDC04600400040E8000020BC9C0000DD
:10504000F0000020000400047FFCFFFFD4000040BB
:105050001FFEFFFFFF3FC0FFF0B5A04D99B02868CD
:10506000694600898024021C4243D31DDB08DB0013
:10507000C91A00AFE4058D462679FF21F86268461B
:10508000B86104F05BFDFF20FFF7A4FEFA6A9449C3
:10509000D200131C0E33081ADB08F860DB006846E8
:1050A000C01A8546F86A6B4680007B62031C0A338F
:1050B000DB087A61DB006A46D21A9546002200239B
:1050C000BA63FB63386168463862A268854BF6B202
:1050D0001340A3602B681C89013C611C16D07F4BD8
:1050E000381C1B6858301B19197B202204F0C6FCA1
:1050F000B96D60228B00D219D318FA6D283B0121BB
:10510000186891400A1C02431A60E5E7FF239E1BC2
:10511000EB235E43744C3419BE69BC600024FE610D
:10512000BC62BE6AFC6AA64200DBC6E000217A6966
:10513000786A04F003FD802400213A69386A04F09B
:10514000FDFCE405002323656365BD6B6420656693
:10515000FE6B7E63A666FFF73DFEFFF77FFA5F4BAF
:10516000BE6A1B68381C9B19197B50300A31C9B2C2
:10517000202204F083FCB86BF96B7B6D3864796492
:105180003A6D0121994060260B1CF61991007118A7
:10519000081C203806689E43331C0660002A04D091
:1051A00028390A685340636501E06B4023657E6BD4
:1051B00065660A20A666FFF70DFE0126FFF74EFA88
:1051C000A667E667386C7B6B45406566796C4B403B
:1051D000A366FFF753FA3A6C7D6C7B6A7A63434AA5
:1051E000FC689168A14214DB414A7C6B10685268EC
:1051F00020405C682A40944203D3F0D11C6884426A
:10520000EDD23C6ADA60B2009860A15001360833F2
:10521000E5E7FFF76BFA8023DB0500229A67DA6780
:10522000012E42D0741E786AE4000419013E002E5B
:105230003BD0231C083B1A6821685B689143626875
:10524000FD6A9A43B300B964FA64013D7B63BA6AAC
:10525000954228D0214B381C1B6858305B19197BAC
:1052600020220A3104F00AFCFB6D0122B86D9A403D
:105270006021131CC91982008A18183A12681A4250
:105280000FD07B6B3A6AB968D258154B19489B1AF4
:105290003B63FAF737FF011C386BFAF7E5FEF96953
:1052A0004855013DD3E7083CC0E7BC6AFE690134BC
:1052B000BC62FC6A3619FE6133E7381C5830E3B231
:1052C0000370437083700023C3700371B9690123B5
:1052D000437100F0D1FEBD4619B0F0BDE8000020DA
:1052E000FFFFFF00FFC3FFFF3542000010E000E0BA
:1052F0009000004040420F007FB5041CFFF78CF97E
:10530000061CFFF791F9154B051C1B685B8F5E436C
:105310004643F6112660FFF72EFD002803D02268D1
:105320005543ED092560226867235343DB09236059
:105330001A1C323B02A96360019300238B80012376
:105340000B704B708B70C83A0423A260CB7008209E
:10535000472301AA0B7100F01FFF7FBDE80000206A
:10536000F0B589B0069300240EAB0390029105922C
:105370001C57FFF743FA0490002C00D086E06A4BDC
:1053800003211B68039C07931A89531E4B43111C6E
:10539000E318013936D3049F88003858059CA04291
:1053A0000DD91E785C789D78F009640004432F1CA9
:1053B000012007407F023C43029FE41B0FE0069C54
:1053C000A0421DD21E785C789D78F00964000443E9
:1053D0002F1C012007407F023C43029F3C19A4B2CE
:1053E000271C0740FF0101977F273E40019F85430F
:1053F0003E431E706608640A044025435E709D703B
:10540000033BC6E70798049F817A03204B1ED318FD
:105410004343039C9200BA18E3180392013900D267
:105420007FE0039A88001058059CA0420DD91E7891
:105430005C789D78F009640004432F1C012007402C
:105440007F023C43029FE41B0FE0069CA0421BD25C
:105450001E785C789D78F009640004432F1C0120BD
:1054600007407F023C43029F3C19A4B2271C07401F
:105470007F22FF0116403E431E706608640A044006
:10548000854325435E709D70033BC7E7012C48D1DF
:10549000254B1868031C3C331A78013A41D3018923
:1054A000837A049CCB189B1899000959059FB9422F
:1054B00011D903214B43039CE3181E785C789D7837
:1054C000F10964000C432F1C01210F407F023C4373
:1054D000029FE41B13E0069CA142DED203214B4352
:1054E000039FFB181E785C789D78F10964000C43DB
:1054F0002F1C01210F407F023C43029F3C19A4B2A4
:10550000271C0F40FF0107977F273E40079F8D43D1
:105510003E431E706608640A0C4025435E709D7011
:10552000BBE709B0F0BDC046E8000020F0B585B08B
:10553000061C0C1C151C1F1CFFF760F90190002FA6
:1055400058D1444B03211B6802931A89531E4B43C5
:1055500091004118F3180391BA4220D00398B90082
:10556000411A04390968A94205D919784806400E3C
:105570000091001B06E0A9420ED219784806400EA1
:1055800000912018844661467F2001408C46009996
:1055900081436046014319700137033BDCE7029BFE
:1055A0000320997A019F4B1ED3184343521892004F
:1055B000BA18F61801920023994249D0019A98002E
:1055C000101A04380068A84204D9307847067F0EC4
:1055D0003F1B05E0A8420AD2307847067F0EE71944
:1055E000BC4662467F273A40B843104330700133CF
:1055F000033EE1E7012F2BD1164B1A68131C3C33F5
:105600001B78013B24D31089917A019F4118C91856
:105610008800C059A84208D903204143711808786E
:10562000029147067F0E3F1B09E0A842E9D2032002
:10563000414371180878029147067F0EE719BC466E
:1056400061467F273940B843029F08433870D8E746
:1056500005B0F0BDE8000020F0B589B00490002945
:1056600000D094E0854B1B68039318890590059A38
:10567000914248DA039A012553181A7B804B520055
:1056800098184478281CA040C0B2D35C06907D4E88
:1056900003201B0148439B195E68049A36091018C1
:1056A0000F27027837404678D209AE4016438278F9
:1056B00007972A4052021643221DAA40D75A019644
:1056C0007F0AEE407F023E43D652D75A0078FF054C
:1056D0004006FF0D000C3843D0520198069F079AF0
:1056E0000540BA43A5402A43D2B20F27101CBA4244
:1056F00000D9381C07405868F0223F0190433843D6
:1057000058600131B3E7039B9A7A013A00D2B3E0C3
:10571000039C059EA31836331978594B4900581835
:105720004078CB5C0790B11803204843049F554D47
:10573000381801784678C90976000E431B01817834
:105740005B190125294049020E4307997408043169
:10575000A940CF5A00787F0A7F023C43CC52CF5AEF
:105760004006FF05000CFF0D3843C852586835400D
:10577000079E0F2100092C1C0840B4402043014023
:1057800008015968F024A14301435960BDE701298C
:1057900072D13A4B1B680393039AD11A01320392D8
:1057A0001A1C3C321278914266DA039A3C32147821
:1057B000334A640010194078A25C0590059F0120CF
:1057C000051CBD402F4CEDB212010695121954680C
:1057D0000F252409254007951E89032501969C7AEB
:1057E000049F341964186C433C196778A478874087
:1057F000044064022743059CBF0504348440A65A34
:10580000FF0D760A76023743A7529F7A019EF71959
:105810007F186F43049EBE5D77063F0C0297A75A20
:10582000029EFF05FF0D3E43A652069E079C9F7AEF
:10583000B443A446019CE61976187543049F644658
:10584000EE5D7D196978F60981400E43A9780F272E
:10585000014049020E430599304088400443E4B2B8
:10586000251CBC4200D93D1C2F405568F0213F014A
:105870008D433D4355608FE709B0F0BDE80000203F
:10588000BC9C000000400040F0B59BB000AF7861C8
:10589000F961141CFEF7B2FFFE691325B860BD6103
:1058A000032E01D10825BD61D14B68461B681E89B6
:1058B0001A1C997A3C321278B4466144891849001E
:1058C0000831C908C900401A85466E46401A3E6133
:1058D0008546F860002C00D0FAE062460321013AC8
:1058E0004A437E6960463D694100B2186E466D18B4
:1058F00071187D603960A4451FD0FD6901210D42FA
:105900000DD07E686000301A557816788D40F60903
:105910003543967802383140490229430180FD69B8
:10592000AD0707D510783E686100711A400602394C
:10593000400E08800134033ADDE79A7A0126FC69BB
:10594000013A22D3344211D019890324891848001E
:1059500061437D694C5D69184D78E4096D0025430C
:105960008C78344064023E692C438453FC69A4075C
:10597000E4D5198903248918480061437D69FE68CC
:10598000495D4906490E8153D8E7344236D0002498
:105990003C62BC849A792025EA555B792322212038
:1059A0002221CB55C355D35D7F25AB4302252B4325
:1059B000D019037024214123CB55391CB8692031FB
:1059C0003A6900F0E9FB8A4B28221B68BC62BC855F
:1059D000D6559A7A2B2029242A26E255F255C25D03
:1059E0007F218A431543C21915701A893C695200F8
:1059F000391CA218B869283100F0CEFBFE690225D7
:105A00002E4237D07A4E002433683C63BC869A79A4
:105A10003020C2555B79332031213222CB55D3550A
:105A2000C35D7F218B432B43C21913703420422363
:105A3000391CC3553031B869FA6800F0ADFB012359
:105A40003821BC63CB553368BC879A7A3B20392414
:105A50003A26E255F255C25D7F218A431543C219A9
:105A600015701A89FC685200391CA218B8693831BF
:105A700000F092FB5E4E391C4031002433683C64D8
:105A80008C809A797F250A705B7904204B708B702B
:105A9000CB78BA68AB430343CB70B86943230B712F
:105AA00000F07AFB391C48310123BC640B70336869
:105AB0008C809A7A04244A708A70CA78AA43224356
:105AC000CA7067220A711A89BD689200AA1889E013
:105AD000012C00D089E00120013A27D3FE6906425B
